{
  "contractName": "hello_world",
  "abi": [
    {
      "inputs": [],
      "payable": false,
      "stateMutability": "nonpayable",
      "type": "constructor"
    },
    {
      "constant": true,
      "inputs": [],
      "name": "getName",
      "outputs": [
        {
          "internalType": "uint256",
          "name": "",
          "type": "uint256"
        }
      ],
      "payable": false,
      "stateMutability": "view",
      "type": "function"
    }
  ],
  "bytecode": "0x60806040526064600055348015601457600080fd5b506087806100236000396000f3fe6080604052348015600f57600080fd5b506004361060285760003560e01c806317d7de7c14602d575b600080fd5b60336049565b6040518082815260200191505060405180910390f35b6000607b90509056fea265627a7a723158204014ddf904cdce8abeb4ef825d4e20e667e6261dfdef49f31ff8c51a4eab748c64736f6c63430005100032",
  "source": "// SPDX-License-Identifier: MIT\npragma solidity >=0.4.22 <0.8.0;\n\ncontract hello_world {\n uint  name=100;\n  constructor() public {\n  }\n\n function getName() public view returns ( uint ){\n    return  123;\n  }\n}\n",
  "sourcePath": "/home/babitabisht/myPros/ethereum/ethereum-test/contracts/hello_world.sol",
  "compiler": {
    "name": "solc",
    "version": "0.5.16+commit.9c3226ce.Emscripten.clang"
  },
  "schemaVersion": "3.3.1",
  "updatedAt": "2020-11-07T04:16:52.583Z",
  "networkType": "ethereum",
  "devdoc": {
    "methods": {}
  },
  "userdoc": {
    "methods": {}
  }
}